001005000RUB                                                            00000010
002003200RUB                                                            00000020
003007800RUB                                                            00000030
004004500RUB                                                            00000040
005002900RUB                                                            00000050
